:100000000C94AF010C94D7010C94D7010C94D70138
:100010000C94D7010C94D7010C94D7010C94D70100
:100020000C94D7010C94D7010C94D7010C94371180
:100030000C94D7010C94D7010C94D7010C94D701E0
:100040000C94F3110C94D7010C9463120C943D1290
:100050000C94D7010C94D7010C94D7010C94D701C0
:100060000C9418100C94D7010608206004000000BE
:10007000000000050000065F0600060007030007F9
:10008000030600247E247E240500242B6A12000629
:1000900000631308646306003649562050040000CC
:1000A000070300000400003E410000040000413E40
:1000B00000000600083E1C3E08060008083E08082E
:1000C000040000E0600000060008080808080400BA
:1000D00000606000000600201008040206003E5187
:1000E00049453E050000427F4000060062514949F3
:1000F000460600224949493606001814127F1006A8
:10010000002F4949493106003C4A4949300600015F
:100110007109050306003649494936060006494972
:10012000291E0400006C6C0000040000EC6C000050
:10013000050008142241000600242424242406007B
:1001400000412214080600020159090606003E413A
:100150005D551E06007E1111117E06007F4949493A
:100160003606003E4141412206007F4141413E06A4
:10017000007F4949494106007F0909090106003EFF
:100180004149497A06007F0808087F050000417F41
:1001900041000600304040403F06007F08142241E5
:1001A00006007F4040404006007F0204027F0600B8
:1001B0007F0204087F06003E4141413E06007F0960
:1001C00009090606003E4151215E06007F09091912
:1001D0006606002649494932060001017F010106F1
:1001E000003F4040403F06001F2040201F06003FC8
:1001F000403C403F06006314081463060007087083
:100200000807050071494543000500007F41410092
:100210000600020408102005000041417F0006008E
:1002200004020102040680808080808004000003B4
:100230000700000600205454547806007F444444CC
:1002400038060038444444280600384444447F06B5
:100250000038545454080500087E090900060018A7
:10026000A4A4A47C05007F04047800050000007DA0
:10027000400005004080847D0005007F1028440078
:10028000050000007F400006007C0418047805008B
:100290007C04047800060038444444380600FC44DA
:1002A000444438060038444444FC0600447844047E
:1002B00008060008545454200500043E4424000558
:1002C000003C40207C0006001C2040201C06003C16
:1002D0006030603C05006C10106C0005009CA06054
:1002E0003C0005006454544C000500083E414100A8
:1002F0000400000077000006000041413E080500B0
:10030000020102010006003C2623263C00000008F2
:1003100000020100000304070000000000000000CC
:1003200000000000250028002B0000000000240031
:1003300027002A0004040404040404040202020244
:100340000202030303030303010204081020408098
:100350000102040810200102040810209512112443
:100360001FBECFEFD8E0DEBFCDBF11E0A0E0B1E00F
:10037000E0E8F7E302C005900D92AC3CB107D9F775
:1003800023E0ACECB1E001C01D92A63FB207E1F75B
:1003900011E0CFEAD1E004C02197FE010E94C61906
:1003A000CE3AD107C9F70E9485130C94BE1B0C945A
:1003B00000009091A6028091A5022FEF3FEF9817C1
:1003C00048F4E92FF0E0EB57FD4F208130E09F5FCC
:1003D0009093A602C90108959091A6028091A5026A
:1003E0002FEF3FEF981748F4E92FF0E0EB57FD4F60
:1003F000208130E09F5F9093A602C9010895AC016F
:10040000E091A603F091A70380819091AF03892B1F
:100410008083E091AA03F091AB0380819091AE03B9
:100420009095982390838091A00320E130E060E0D4
:1004300070E887FF12C05EBD0DB407FEFDCF4EBD54
:100440000DB407FEFDCFE091AA03F091AB038081CC
:100450009091AE03892B80830895E091A203F091DF
:10046000A3039091AC03DA01A623B7238081AB2BC1
:10047000D9F0982B9083E091A403F091A50380819B
:100480009091AD03892B8083E091A403F091A503A3
:1004900080819091AD039095982390837695679590
:1004A00021503109D1F6CFCF90959823E3CF9C010D
:1004B000E091A603F091A70380819091AF039095FE
:1004C00098239083E091AA03F091AB0380819091EF
:1004D000AE039095982390838091A00340E150E073
:1004E00060E070E887FF12C01EBC0DB407FEFDCFB0
:1004F0002EBD0DB407FEFDCFE091AA03F091AB0332
:1005000080819091AE03892B80830895E091A203AE
:10051000F091A3039091AC03D901A623B723808166
:10052000AB2BD9F0982B9083E091A403F091A50315
:1005300080819091AD03892B8083E091A403F09199
:10054000A50380819091AD03909598239083769533
:10055000679541505109D1F6CFCF90959823E3CFBD
:10056000CF93DF93EB010E945702CE01DF91CF9131
:100570000C94FF016FEA70E086E390E00E94B00205
:1005800070E060E087E390E00E94B0026BED70E005
:1005900088E390E00E94B00270E060E089E390E0C0
:1005A0000C94B0028091EC039091ED03A091EE03C6
:1005B000B091EF030197A109B1098093EC039093E7
:1005C000ED03A093EE03B093EF03892B8A2B8B2BC3
:1005D00049F4E091AA03F091AB0380819091AE03BE
:1005E000892B808308958091EC039091ED03A09175
:1005F000EE03B091EF03AC01BD014F5F5F4F6F4F52
:100600007F4F4093EC035093ED036093EE037093A0
:10061000EF03892B8A2B8B2B91F48091A00387FF0A
:1006200004C080E58CBD81E08DBDE091AA03F0910E
:10063000AB0390818091AE038095892380830895D8
:10064000DC01FB018091B0038230B9F0833069F1A5
:10065000813051F580919803909199030197208101
:100660003181821B930B918380832D913C91119753
:100670008D939C933183208308958091960390916C
:10068000970301972D913C911197821B930B8D93AA
:100690009C938091980390919903019720813181D7
:1006A000821B930B91838083089580919603909190
:1006B000970301972D913C911197821B930B1196F3
:1006C0009C938E93208131812D933C93EBCF0F939C
:1006D0001F93CF93DF93CDB7DEB728970FB6F8946B
:1006E000DEBF0FBECDBF7C836B835E834D833887B7
:1006F0002F832091960330919703215031092817B9
:10070000390708F4C9019A8389838D819E8128174E
:10071000390708F4C9019E838D83809198039091D5
:10072000990301972B813C818217930708F49C0160
:100730003C832B832F8138858217930708F49C0113
:1007400038872F83BE016D5F7F4FCE0101960E94D7
:100750002003BE01695F7F4FCE0105960E942003F2
:100760002D813E8189819A812817390720F43A83A7
:1007700029839E838D832F8138858B819C812817C7
:10078000390720F43C832B8398878F830E94F302E0
:10079000E091B00307E010E0EE2359F0E150FF0BC9
:1007A00024E0EE0FFF1F2A95E1F7EA56FC4F02A561
:1007B00013A5B80183E0660F771F8A95E1F7706192
:1007C00083E090E00E94B0026D817E8186E390E03C
:1007D0000E94B00269817A8187E390E00E94B002B2
:1007E0006F81788588E390E00E94B0026B817C8104
:1007F00089E390E00E94B00215950795013011053C
:1008000029F1ACF46D817E81012B11F182E290E03F
:100810000E9457020E94D20228960FB6F894DEBFBB
:100820000FBECDBFDF91CF911F910F910895023080
:100830001105C9F069817A810330110539F780E229
:1008400090E00E94B0026B817C8108C069817A814E
:1008500080E290E00E94B0026F81788581E290E0B2
:100860000E94B002D3CF6D817E81E9CF2F923F925B
:100870004F925F926F927F928F929F92AF92BF92B0
:10088000CF92DF92EF92FF920F931F93CF93DF935C
:10089000CDB7DEB72F970FB6F894DEBF0FBECDBF32
:1008A0004B01598748877C01512C252D30E0E88584
:1008B000F985848195812817390708F0FEC0808169
:1008C0009181009709F49DC0820F931FFC018081E4
:1008D0001091E6032091EA03129F900111242F5FEB
:1008E0003F4F082E000C990B4091E803841B91099F
:1008F000289F3001299F700C389F700C1124809123
:10090000EB03811109C0E091E403F091E503C30119
:100910000496E80FF91F1491F5E06F0E711C0E9408
:10092000F302212E312CA7014F5F5F4F420D531D63
:1009300080919603909197034817590708F063C078
:100940002091E7032150330B280D391D8091980326
:10095000909199032817390708F055C0B401C701D1
:100960000E94670321E02D8300E06301412CA70171
:10097000400F511D5B874A878C2D86199091EA03A1
:10098000891708F08CC0E0E0101739F0E091E4031B
:10099000F091E503EC0DFD1DE4915FEFC51AD50A5A
:1009A000F8E08F9FC00111249C01280D391D3D875F
:1009B0002C87B12CA12C4E2F50E05F874E87809161
:1009C000E7034816C8F68E859F850A2C02C09595C8
:1009D00087950A94E2F7817099275D815523D1F0BC
:1009E000892BA9F480919A0390919B030E94FF01A7
:1009F00043945FEFA51AB50A88E0A816B104F9F68A
:100A0000BBCF80E065CF1D82AFCF3601AECF8FEF79
:100A10009FEFECCF892BF1F580919A0390919B0386
:100A20009F838E838C859D858A0D9B1D2A853B85A2
:100A30003C832B839A83898320919603309197037B
:100A40004A855B854217530798F6209198033091A9
:100A500099038217930760F6BE016F5F7F4FCE0147
:100A600003960E9420030E94F3026B817C8180E246
:100A700090E00E94B00269817A8181E290E00E9458
:100A8000B0026E817F8182E290E00E94B0020E94FB
:100A9000D202AECFEFEFFFEFFF83EE83C3CF0F5F46
:100AA000101708F0B2CF0E94D2020E94BA02C10110
:100AB0000196E80EF91E5394F8CEC7012F960FB693
:100AC000F894DEBF0FBECDBFDF91CF911F910F9184
:100AD000FF90EF90DF90CF90BF90AF909F908F905E
:100AE0007F906F905F904F903F902F900895AF92BE
:100AF000BF92CF92DF92EF92FF920F931F93CF930B
:100B0000DF936C015B01EA0179010E9467030E9497
:100B1000F3028FEFE81AF80AEA18FB082196CC19BD
:100B2000DD09EC9E6001ED9ED00CFC9ED00C1124E2
:100B3000C114D10439F0C8010E94FF0181E0C81A34
:100B4000D108F6CF0E94D202DF91CF911F910F9171
:100B5000FF90EF90DF90CF90BF90AF900C94BA02CF
:100B600090E0FC01E85BFC4F24918C5C9C4FFC0105
:100B70008491882399F090E0880F991FFC01E65D2D
:100B8000FC4FA591B491FC01E05EFC4F85919491DE
:100B90008FB7F894EC91E22BEC938FBF08952091DE
:100BA0001002260F3327331F21323105ECF4209138
:100BB0007F02FC0190E080E0243069F082E008953B
:100BC000A09110022191AC0142515E4FA40FB52FAC
:100BD000B11D2C930196861798F380911002680F2F
:100BE0006093100280E0089581E0089508950895CB
:100BF0000895E091A6028091A502E81730F4F0E094
:100C0000EB57FD4F808190E008958FEF9FEF08959F
:100C10008091A5029091A602891B990B0895CF920D
:100C2000DF92EF92FF920F931F93CF93DF937C019C
:100C3000CB018A0120913502222389F0EB016B015F
:100C4000C40ED51ECC15DD0569F06991D701ED9173
:100C5000FC910190F081E02DC7010995F3CF642F3D
:100C60000E94CF05C801DF91CF911F910F91FF9096
:100C7000EF90DF90CF900895CF93DF931F92CDB781
:100C8000DEB76983209135022223F9F020915802C2
:100C9000203258F021E030E0FC013383228390E0E1
:100CA00080E00F90DF91CF91089580913602E82F78
:100CB000F0E0E95CFD4F998190838F5F809336026D
:100CC0008093580281E090E0ECCF61E0CE01019684
:100CD0000E94CF05F7CF682F87EA92E00C943C067C
:100CE000CF92DF92EF92FF92CF93DF93EC016032CD
:100CF00082E07807CCF5653B710514F064EB70E099
:100D0000898128E830E0281B310987FD3395220FBF
:100D1000331F220F331F6901330FEE08FF088A814A
:100D200028E532E0281B310987FD3395220F331F58
:100D3000220F331F032E000C440B550B2C193D09B9
:100D40004E095F09DB0177FF02C0B0E0A0E00E941E
:100D50003E1924EB30E040E050E00E941419C20E2E
:100D6000D31EE41EF51EB601E881EC3070F5298132
:100D700088E890E0821B910927FD9395880F991FC1
:100D8000880F991F681779077CF02A8188E592E01F
:100D9000821B910927FD9395880F991F880F991F32
:100DA000681779070CF4CB010297880F991F4FB78A
:100DB000F8942E2F30E0F901EE0FFF1FE20FF31F22
:100DC000E05BFC4F928381834FBFDF91CF91FF9017
:100DD000EF90DF90CF900895892B79F410928000E6
:100DE00082E0809381001092850010928400B19A75
:100DF00080916F00826080936F00089590E0FC0105
:100E0000E45FFC4F2491FC01E85BFC4F3491FC0152
:100E1000EC5CFC4FE491EE23C9F0222339F023303F
:100E200001F1A8F4213019F1223029F1F0E0EE0FA0
:100E3000FF1FE05EFC4FA591B4918FB7F894EC9141
:100E4000611126C030953E233C938FBF0895273013
:100E5000A9F02830C9F0243049F7809180008F7DB7
:100E600003C0809180008F7780938000DFCF84B5AE
:100E70008F7784BDDBCF84B58F7DFBCF8091B000B1
:100E80008F778093B000D2CF8091B0008F7DF9CF63
:100E90003E2BDACF1F93CF93DF938093E303109120
:100EA000A103112309F43CC0C091B103D0E081112A
:100EB00002C0D0E0C0E0812F0E94B005209739F435
:100EC00060E0812FDF91CF911F910C94FE06CF3F00
:100ED000D10511F461E0F5CFE12FF0E0E45FFC4FC4
:100EE000E491E33031F140F4E130B1F0E230E1F08F
:100EF000C038D1057CF7E4CFE73029F1E83059F16B
:100F0000E430B1F780918000806280938000D093BC
:100F10008B00C0938A0004C084B5806884BDC7BDBF
:100F2000DF91CF911F91089584B5806284BDC8BDC3
:100F3000F7CF80918000806880938000D0938900F3
:100F4000C0938800EDCF8091B00080688093B0009E
:100F5000C093B300E5CF8091B00080628093B00071
:100F6000C093B400DDCF10927F0281E080937E02B7
:100F70001092790261E082E10E94FE0661E083E165
:100F80000E94FE06E9EBF0E080818E7F8083808105
:100F90008D7F808388E48093B80085E48093BC00D3
:100FA0000895CF93DF9391E09093ED018823B9F0FA
:100FB000C091B800D091BA008091BC008A7B809328
:100FC000BC0060E082E10E94FE0660E083E10E94D6
:100FD000FE060E94B307D093BA00C093B800DF9119
:100FE000CF9108958E3008F08E5087708064809382
:100FF0007C0080917A00806480937A0080917A00EE
:1010000086FDFCCF809178009091790008953FB7DC
:10101000F8948091E8019091E901A091EA01B091E2
:10102000EB0126B5A89B05C02F3F19F00196A11D25
:10103000B11D3FBFBA2FA92F982F8827BC01CD0122
:10104000620F711D811D911D42E0660F771F881F81
:10105000991F4A95D1F70895CF92DF92EF92FF92B0
:101060000F931F93CF93DF93D091580281E0D13239
:1010700008F09CC0C09157020E9407086B017C01D8
:1010800080917F0281116CC082E080937F0281E0B9
:1010900080937E028FEF80937D0210927C02D0932A
:1010A0007B02A7E3B2E0E9E5F2E080E0D8138DC06F
:1010B00010927A0280917A02CC0FC82BC0937A02E8
:1010C00080917902813009F084C0109279020E94E7
:1010D00007086B017C0180917A028093BB008091AC
:1010E000810290918202A0918302B0918402892BA7
:1010F0008A2B8B2BA1F00E9407080091810210918E
:10110000820220918302309184026C197D098E093C
:101110009F09061717072807390708F442C080916E
:10112000BC0083FDD8CF85EC8093BC000E940708EB
:101130006B017C0180917F02823009F44CC0809168
:101140007D028F3F09F469C080917D02803209F4ED
:1011500066C080917D02803309F463C084E026C0BC
:101160008091810290918202A0918302B0918402C9
:10117000892B8A2B8B2B09F483CF0E9407080091BF
:1011800081021091820220918302309184026C19B5
:101190007D098E099F09061717072807390708F0E8
:1011A0006FCF809180020E94D10785E010923602B5
:1011B0001092580210923502DF91CF911F910F913A
:1011C000FF90EF90DF90CF9008959D9191938F5F66
:1011D0006DCF85EEA9CF8091810290918202A0917E
:1011E0008302B0918402892B8A2B8B2B09F4A2CF26
:1011F0000E940708009181021091820220918302CF
:10120000309184026C197D098E099F090617170712
:101210002807390708F08ECFC4CF80E0C7CF82E01F
:10122000C5CF83E0C3CF8F929F92AF92BF92CF92F0
:10123000DF92EF92FF924B015C010E9407086B0165
:101240007C010E9407086C197D098E099F09683E80
:10125000734081059105A8F321E0821A9108A10845
:10126000B10888EEC80E83E0D81EE11CF11C811481
:101270009104A104B10429F7FF90EF90DF90CF9083
:10128000BF90AF909F908F900895AF92BF92CF92F2
:10129000DF92EF92FF920F931F93CF93DF936C0136
:1012A0007B018B01040F151FEB015E01AE18BF0817
:1012B000C017D10759F06991D601ED91FC910190C9
:1012C000F081E02DC6010995892B79F7C501DF91E1
:1012D000CF911F910F91FF90EF90DF90CF90BF9033
:1012E000AF90089590E080E00895FC01538D448D07
:1012F000252F30E0842F90E0821B930B541710F0C1
:10130000CF96089501970895FC01918D828D9817CD
:1013100061F0A28DAE0FBF2FB11D5D968C91928DA5
:101320009F5F9F73928F90E008958FEF9FEF0895D6
:10133000FC01918D828D981731F0828DE80FF11D9F
:10134000858D90E008958FEF9FEF0895FC01918DBA
:10135000228D892F90E0805C9F4F821B91098F73B3
:101360009927089583EB92E00E94A60921E0892B3A
:1013700009F420E0822F089580E090E0892B29F085
:101380000E94B20981110C9400000895FC01A48D03
:10139000A80FB92FB11DA35ABF4F2C91848D90E097
:1013A00001968F739927848FA689B7892C93A0897A
:1013B000B1898C91837080648C93938D848D981304
:1013C00006C00288F389E02D80818F7D8083089597
:1013D000EF92FF920F931F93CF93DF93EC0181E085
:1013E000888F9B8D8C8D98131AC0E889F98980812C
:1013F00085FF15C09FB7F894EE89FF896083E8895F
:10140000F98980818370806480839FBF81E090E050
:10141000DF91CF911F910F91FF90EF900895F62EDD
:101420000B8D10E00F5F1F4F0F731127E02E8C8D77
:101430008E110CC00FB607FCFACFE889F9898081BC
:1014400085FFF5CFCE010E94C609F1CFEB8DEC0FE1
:10145000FD2FF11DE35AFF4FF0829FB7F8940B8FD9
:10146000EA89FB8980818062CFCFCF93DF93EC0143
:10147000888D8823B9F0AA89BB89E889F9898C917C
:1014800085FD03C0808186FD0DC00FB607FCF7CF38
:101490008C9185FFF2CF808185FFEDCFCE010E9438
:1014A000C609E9CFDF91CF9108958F929F92AF92B5
:1014B000BF92CF92DF92EF92FF921F93CF93DF9371
:1014C000D82F162F0E9407086B017C0180917F02A4
:1014D000811166C0C12F81E080937F0280937E02DC
:1014E0009FEF90937D0210927C02910F90937B026C
:1014F00080937A0280917A02DD0FD82BD0937A0202
:1015000080917902813009F082C0109279020E94A4
:1015100007086B017C0180917A028093BB00809167
:10152000810290918202A0918302B0918402892B62
:101530008A2B8B2BA1F00E9407088090810290904B
:101540008202A0908302B09084026C197D098E09FA
:101550009F0986169706A806B90608F442C080912E
:10156000BC0083FDD8CF85EC8093BC000E940708A7
:101570006B017C0180917F02813009F44AC0809127
:101580007C02811710F4C0917C02A9E5B2E0E5E885
:10159000F2E080E08C1751F19D9191938F5FFACF2B
:1015A0008091810290918202A0918302B091840285
:1015B000892B8A2B8B2B09F489CF0E9407088090F6
:1015C000810290908202A0908302B09084026C19F4
:1015D0007D098E099F0986169706A806B90608F0A8
:1015E00075CF809180020E94D107C0E01092A602C0
:1015F000C093A5028C2FDF91CF911F91FF90EF90A8
:10160000DF90CF90BF90AF909F908F90089585EE20
:10161000ABCF8091810290918202A0918302B09120
:101620008402892B8A2B8B2B09F4A4CF0E940708F4
:101630008090810290908202A0908302B0908402F8
:101640006C197D098E099F0986169706A806B906AA
:1016500008F090CFC6CFCF93DF9380917B0391E0CA
:1016600090933502809357021092360210925802DE
:1016700090E080E00E946B060E942C082091860377
:1016800080917B0390917C0368E070E0213011F041
:1016900063E170E00E94550A0E94EC01982F929538
:1016A0009770CAE08F709C9F800D112480937D03FA
:1016B0000E94EC01982F929597708F709C9F800DDF
:1016C000112480937E030E94EC01982F92959370D1
:1016D0008F709C9F800D112480937F030E94EC01EA
:1016E000982F92959F708F709C9F800D11248093EE
:1016F00083030E94EC01982F92959F708F709C9F9E
:10170000800D1124809380030E94EC0184FB9927B3
:1017100090F98F709C9F800D1124809381030E940B
:10172000EC01982F92959F708F709C9F800D1124D3
:10173000809382038FEF9FE79093850380938403C8
:10174000809186038130B9F40E94EC0184FF0AC0C5
:1017500087FD06C08FEF80939303DF91CF910895AB
:101760008EEFF9CF83709927019711F480E1F3CFC1
:1017700010929303F2CF1092870380E880938D0339
:101780000E94EC01282F221F2227221F90918703FD
:10179000922B90938703982F929597708F709C9FB0
:1017A000800D1124809388030E94EC019C01B6E017
:1017B00035952795BA95E1F7227090918703292BEB
:1017C00020938703982F929597708F709C9F800D20
:1017D0001124809389030E94EC019C01D5E035958A
:1017E0002795DA95E1F7247090918703292B2093B0
:1017F0008703982F929593708F709C9F800D112472
:1018000080938A030E94EC019C0144E03595279562
:101810004A95E1F7287030918703232B322F3F70D0
:1018200009F4C3C020938703982F92959370CAE060
:101830008F709C9F800D112480938B030E94EC017C
:101840009C0176E0359527957A95E1F72270909185
:101850008D03292B20938D03982F929597708F706D
:101860009C9F800D112480938E030E94EC019C01AB
:10187000E5E035952795EA95E1F7247090918D0381
:10188000292B20938D03982F929593708F709C9F96
:10189000800D112480938F030E94EC019C01F4E0E1
:1018A00035952795FA95E1F7287030918D03232B14
:1018B000322F3E7009F481C020938D03982F9E71C2
:1018C0008F70890F809390030E94EC0182FF80C08B
:1018D0009EEF9093930380FF78C09091870390626E
:1018E0009093870381FF79C080918D0380628093FC
:1018F0008D030E94EC01FC01B82F282F2B70C1E052
:1019000030E040E050E060E070E080E090E0A0E097
:101910000E94BA1909F4C0E0C0939403BB7081E03F
:1019200009F480E08093950321E0CF018B70992723
:10193000892B09F420E020939103EB71FF2781E0CC
:10194000EF2B09F480E080938C030E94EC0187FD6B
:1019500046C0809392030E94EC01EC010E94EC01CE
:101960009E01220F331F220F331F2C7F337056E04E
:10197000959587955A95E1F783709927822B932B3C
:10198000C7FD2FC090938503809384032091840327
:101990003091850349E1429FC001439F900D11247E
:1019A0009093850380938403D8CEAC0155954795D9
:1019B000559547954071242B35CFAC0155954795EA
:1019C000559547954071242B77CF109287038ACF86
:1019D0008871809393031092870380E888CF8150A9
:1019E000B8CF9C6F0197CECF85ED8093BC008091DE
:1019F000810290918202A0918302B09184020796A5
:101A0000A11DB11D23E0B695A795979587952A95B9
:101A1000D1F72091BC0024FD03C010927F020895ED
:101A20004091810250918202609183027091840200
:101A3000452B462B472B69F30097A105B10541F0D3
:101A400025E32A95F1F700000197A109B109E1CF3B
:101A5000809180020C94D1070F931F93CF93DF9353
:101A6000EC0188819981009759F02A813B812617E2
:101A7000370730F081E0DF91CF911F910F910895EA
:101A80008B016F5F7F4F0E94F11A009759F0998385
:101A900088831B830A832C813D81232B59F7FC010A
:101AA0001082E8CF80E0E7CFEF92FF920F931F9371
:101AB000CF93DF936115710541F480E0DF91CF9101
:101AC0001F910F91FF90EF90089541155105B1F0CE
:101AD0007B01EC010C811D81040F151FB8010E94D0
:101AE0002C0D882351F3288139818C819D81B70188
:101AF000820F931F0E94B71B1D830C8381E0DECFF2
:101B0000CF93DF93EC0188819981009711F00E94B7
:101B1000681A198218821D821C821B821A82DF9128
:101B2000CF9108950F931F93CF93DF9300D0CDB73C
:101B3000DEB78C0169831A8241E050E0BE016F5F1D
:101B40007F4F0E94540D811103C0C8010E94800D77
:101B5000C8010F900F90DF91CF911F910F910895C1
:101B6000CF93DF93EC01FB0144815581608171814A
:101B70000E94540D811103C0CE010E94800DCE0140
:101B8000DF91CF910895EF92FF920F931F93CF9320
:101B9000DF93EC017B018A01BA010E942C0D8111B7
:101BA0000BC0CE010E94800DCE01DF91CF911F911D
:101BB0000F91FF90EF9008951D830C83B7018881EA
:101BC00099810E94B71BF0CFEF92FF920F931F9362
:101BD000CF93DF93CDB7DEB762970FB6F894DEBF31
:101BE0000FBECDBF8C01CB01F80111821082138290
:101BF0001282158214824AE09E012F5F3F4F7901C5
:101C0000B9010E94DF18F70101900020E9F7319730
:101C1000AF014E195F09B701C8010E94C30D62965A
:101C20000FB6F894DEBF0FBECDBFDF91CF911F91ED
:101C30000F91FF90EF900895FB01DC0111961C922B
:101C40001E9213961C921E92129715961C921E922B
:101C500014978617970749F06081718161157105A6
:101C600021F0448155810C94C30D0895FC0111822B
:101C700010821382128215821482FB0101900020CF
:101C8000E9F73197AF01461B570B0C94C30DFC01CC
:101C900080819181009711F00C94681A08955F92E9
:101CA0006F927F928F929F92AF92BF92CF92DF926C
:101CB000EF92FF920F931F93CF93DF93CDB7DEB7D1
:101CC000CE57D1090FB6F894DEBF0FBECDBF582E48
:101CD0004B013A0184E5EAE0F1E0DE011196019062
:101CE0000D928A95E1F7B901CE018B5A9F4F0E9460
:101CF000E40DB301CE01855A9F4F0E94E40DB4015B
:101D0000CE0189599F4F0E94E40DBE0169597F4F52
:101D1000CE018F599F4F0E941C0E6AE3CE018F594E
:101D20009F4F0E94920DBE01655A7F4F0E94B00DD9
:101D30006AE30E94920DBE016B5A7F4F0E94B00D64
:101D4000BC01CE0187589F4F0E941C0ECE018F59B7
:101D50009F4F0E94470ECE0189599F4F0E94470E08
:101D6000CE01855A9F4F0E94470ECE018B5A9F4F3E
:101D70000E94470EB6016053784FCE018B5A9F4F99
:101D80000E94E40DB701CE01855A9F4F0E94E40DD9
:101D9000B801CE018F599F4F0E94E40D8CE08A9DBF
:101DA000B0018B9D700D112481E090E08C0F9D1F80
:101DB000680F791F84599F4F0E94360EBE016359E8
:101DC0007F4FCE0189599F4F0E941C0E42E050E088
:101DD00062EB71E0CE0189599F4F0E94540D811131
:101DE00005C0CE0189599F4F0E94800DBE016F59D9
:101DF0007F4FCE0189599F4F0E94B00D6FE20E9424
:101E0000920DBE01655A7F4F0E94B00D6FE20E9495
:101E1000920DBE016B5A7F4F0E94B00DBC01CE01E6
:101E20008D589F4F0E941C0ECE0189599F4F0E94D2
:101E3000470ECE0183599F4F0E94470ECE018F5906
:101E40009F4F0E94470ECE01855A9F4F0E94470E1A
:101E5000CE018B5A9F4F0E94470EBE0167587F4F9D
:101E6000CE018B5A9F4F0E941C0E60E2CE018B5A0E
:101E70009F4F0E94920DBE016D587F4F0E94B00D82
:101E8000BC01CE0189599F4F0E941C0ECE018B5A76
:101E90009F4F0E94470EE52C550CFF08B701CE015D
:101EA000855A9F4F0E94E40DBE01655A7F4FCE01B7
:101EB0008B5A9F4F0E941C0E41E050E065EB71E091
:101EC000CE018B5A9F4F0E94540D811105C0CE0147
:101ED0008B5A9F4F0E94800DBE016B5A7F4FCE01DF
:101EE0008F599F4F0E941C0ECE018B5A9F4F0E940C
:101EF000470ECE01855A9F4F0E94470E67EB71E057
:101F0000CE018B5A9F4F0E94360EAE014B5A5F4F47
:101F100066E970E082E690E00E943604CE018B5ABA
:101F20009F4F0E94470EBE0169597F4FCE018B5AC9
:101F30009F4F0E941C0EAE014B5A5F4F6CE870E041
:101F400084E190E00E943604CE018B5A9F4F0E949C
:101F5000470E6CEB71E0CE018B5A9F4F0E94360EFC
:101F6000AE014B5A5F4F62E870E084E490E00E945B
:101F70003604CE018B5A9F4F0E94470E0FEF1FEF82
:101F80002EE630E040EA50E068E770E08CE390E055
:101F90000E947705A701445C5F4F0FE110E02EE639
:101FA00030E068E770E08CE390E00E947705BE01C6
:101FB0006F597F4FCE018B5A9F4F0E941C0EAE016E
:101FC0004B5A5F4F64E670E085E690E00E9436046D
:101FD000CE018B5A9F4F0E94470ECE018F599F4FC3
:101FE0000E94470ECE0189599F4F0E94470ECE0195
:101FF0008D589F4F0E94470ECE0187589F4F0E94D9
:10200000470EC258DF4F0FB6F894DEBF0FBECDBFEC
:10201000DF91CF911F910F91FF90EF90DF90CF90C4
:10202000BF90AF909F908F907F906F905F9008953A
:102030001F920F920FB60F9211242F933F934F933D
:102040005F936F937F938F939F93AF93BF93EF9320
:10205000FF938091B900887F803609F44AC0F0F57B
:10206000883209F4A7C018F5803109F49BC0B8F490
:10207000882309F4F9C0883009F494C0FF91EF91E6
:10208000BF91AF919F918F917F916F915F914F9190
:102090003F912F910F900FBE0F901F901895883190
:1020A00009F488C0803251F780937D0214C08034D7
:1020B00009F49DC040F48033B9F38833F9F6809376
:1020C0007D0285ECB0C0803509F485C0883509F4FF
:1020D00096C0883499F60E94F40CD0CF883909F460
:1020E0008CC038F5883729F050F4883611F08037E5
:1020F00029F683E080937F021092340257C088381B
:1021000009F47BC0803919F0803809F0B7CF80918D
:102110003402803208F071C0E091340281E08E0F09
:10212000809334028091BB00F0E0EC5EFD4F808331
:102130003DC0803B39F0E0F4803A09F479C0883A38
:1021400009F09CCF84E080937F02109211021092DC
:102150001002E0910E02F0910F0209958091100299
:1021600081110FC081E0809310021092EE0109C02E
:10217000803C09F4A6CF883C09F4A3CF883B09F042
:102180007DCFE091110281E08E0F80931102F0E08B
:10219000E251FE4F80818093BB00909111028091AB
:1021A000100229C080917A028093BB0085EC809355
:1021B000BC0064CF90917C0280917B02981758F507
:1021C000E0917C0281E08E0F80937C02F0E0E75A80
:1021D000FD4F8081E9CFE0917C0281E08E0F8093FA
:1021E0007C028091BB00F0E0E75AFD4F8083909124
:1021F0007C0280917B029817C8F285E8D8CFE091E5
:102200007C0281E08E0F80937C028091BB00F0E025
:10221000E75AFD4F808380917E0281115CCF81E07F
:102220008093790284EA8093BC0010927F0226CFCB
:1022300085EC8093BC0010927F0280913402803242
:1022400030F4E0913402F0E0EC5EFD4F10826091DA
:10225000340270E0E0911202F091130284E192E006
:102260000995109234020ACF10927D0234CF1F924A
:102270000F920FB60F9211242F933F934F935F93BA
:102280006F937F938F939F93AF93BF93CF93DF937E
:10229000EF93FF938091EC01C0917403D0E087FF2E
:1022A00024C010928500109284008091EC018F5F11
:1022B0008093EC018091EC01082E000C990B8C1797
:1022C0009D0724F48091EC018C30C4F1809184004E
:1022D00090918500049680349C4908F47AC08091DE
:1022E000840090918500049676C08091EC01082EC0
:1022F000000C990B8C179D07C4F6E091EC018E2F12
:10230000EE0F990BFC01EE0FFF1FE80FF91FE05BCA
:10231000FC4F808186FFC9CFE091EC018E2FEE0F3C
:10232000990BFC01EE0FFF1FE80FF91FE05BFC4F5C
:10233000808160E08F730E94FE06B7CF20918400F9
:1023400030918500E091EC018E2FEE0F990BFC018E
:10235000EE0FFF1FE80FF91FE05BFC4F81819281B8
:10236000820F931F9093890080938800E091EC0185
:102370008E2FEE0F990BFC01EE0FFF1FE80FF91FD8
:10238000E05BFC4F808186FF11C0E091EC018E2F55
:10239000EE0F990BFC01EE0FFF1FE80FF91FE05B3A
:1023A000FC4F808161E08F730E94FE06FF91EF91E8
:1023B000DF91CF91BF91AF919F918F917F916F915D
:1023C0005F914F913F912F910F900FBE0F901F90F3
:1023D000189580E49CE990938900809388008FEFA2
:1023E0008093EC01E3CF1F920F920FB60F9211244E
:1023F0002F933F938F939F93AF93BF938091E4016B
:102400009091E501A091E601B091E7013091E301DF
:1024100023E0230F2D3758F50196A11DB11D209300
:10242000E3018093E4019093E501A093E601B0936A
:10243000E7018091E8019091E901A091EA01B09152
:10244000EB010196A11DB11D8093E8019093E90174
:10245000A093EA01B093EB01BF91AF919F918F914F
:102460003F912F910F900FBE0F901F90189526E867
:10247000230F0296A11DB11DD2CF1F920F920FB64E
:102480000F9211242F933F934F935F936F937F93FA
:102490008F939F93AF93BF93EF93FF9383EB92E060
:1024A0000E94C609FF91EF91BF91AF919F918F91CB
:1024B0007F916F915F914F913F912F910F900FBE40
:1024C0000F901F9018951F920F920FB60F92112424
:1024D0002F938F939F93EF93FF93E091C302F0911B
:1024E000C4028081E091C902F091CA0282FD1BC042
:1024F00090818091CC028F5F8F732091CD028217E3
:1025000041F0E091CC02F0E0ED54FD4F958F8093C7
:10251000CC02FF91EF919F918F912F910F900FBE61
:102520000F901F9018958081F4CF1092AA021092FC
:10253000A90288EE93E0A0E0B0E08093AB02909314
:10254000AC02A093AD02B093AE0222E931E0309329
:10255000A8022093A7021092B6021092B5028093AF
:10256000B7029093B802A093B902B093BA0284EA7A
:1025700091E09093B4028093B30285EC90E0909345
:10258000C0028093BF0284EC90E09093C2028093DB
:10259000C10280EC90E09093C4028093C30281EC6E
:1025A00090E09093C6028093C50282EC90E09093F5
:1025B000C8028093C70286EC90E09093CA02809391
:1025C000C9021092CC021092CD021092CE0210924B
:1025D000CF0280E3EEE5F1E0A2EBB3E001900D92D3
:1025E0008A95E1F786E080939C0385E080939D03C4
:1025F00087E080939E0384E080939F0383E0809331
:10260000A0031092A10398EC9093B1031092E203FF
:102610001092EC031092ED031092EE031092EF0370
:102620001092F1031092F00310927D0310927E033A
:1026300010927F0310928003109281031092820304
:10264000109283032FE037E23093850320938403B5
:102650008093860310928703109288031092890357
:1026600010928A0310928B0310928C0380E880935F
:102670008D0310928E0310928F031092900310928C
:102680009103109292038EEF809393031092940320
:102690001092950388E690E090937C0380937B03EF
:1026A000809174038C3048F591E0980F90937403F7
:1026B0008093780390E0FC01EE0FFF1FE80FF91FF5
:1026C000E05BFC4F88EB9BE09283818380917403F5
:1026D0008C30B8F491E0980F909374038093750355
:1026E00090E0FC01EE0FFF1FE80FF91FE05BFC4FCD
:1026F00088EB9BE09283818308958FEF809378032A
:10270000E5CF8FEF809375030895789484B5826048
:1027100084BD84B5816084BD85B5826085BD85B585
:10272000816085BD80916E00816080936E00109203
:10273000810080918100826080938100809181007E
:10274000816080938100809180008160809380000F
:102750008091B10084608093B1008091B00081606D
:102760008093B00080917A00846080937A00809199
:102770007A00826080937A0080917A0081608093F1
:102780007A0080917A00806880937A001092C1006C
:10279000E091C302F091C40282E08083E091BF0225
:1027A000F091C0021082E091C102F091C2028FEC60
:1027B00080831092CB02E091C702F091C80286E0BC
:1027C0008083E091C502F091C602808180618083A0
:1027D000E091C502F091C602808188608083E0911B
:1027E000C502F091C602808180688083E091C502B5
:1027F000F091C60280818F7D80831092A602109294
:10280000A50210923602109258020E94B30786EF7A
:1028100095E090930F0280930E0287EF95E09093DE
:1028200013028093120280917B03C1E0C0933502B2
:102830008093570290E080E00E946B0660E087EA98
:1028400092E00E943C0665E587EA92E00E943C0621
:1028500060E187EA92E00E943C0667E087EA92E046
:102860000E943C0664E287EA92E00E943C0682E90C
:1028700090E00E946B0662E287EA92E00E943C06CA
:102880000E942C0880917B03C093350280935702ED
:1028900010923602109258028FE090E00E946B0670
:1028A0000E942C08C0910201D09103010091000107
:1028B00010910101809178038C3008F042C08AE0C9
:1028C0000E94B00580917803282F30E0F901EE0FC7
:1028D000FF1FE20FF31FE05BFC4F9081907C9A603A
:1028E00090831092790310927A032CE0622F0E9459
:1028F000AE1990E0829FB001112430E020E0AB01DE
:10290000420F531FFA01EE0FFF1FE40FF51FE05BAC
:10291000FC4F408146FD07C02F5F3F4F2C303105F3
:1029200071F70E94EC06E09178038E2F90E0FC0195
:10293000EE0FFF1FE80FF91FE05BFC4F8081806402
:102940008083809175038C3008F042C08BE00E9438
:10295000B00580917503282F30E0F901EE0FFF1FBD
:10296000E20FF31FE05BFC4F9081907C9B609083B3
:1029700010927603109277032CE0622F0E94AE191A
:1029800090E0829FB001112430E020E0AB01420FC3
:10299000531FFA01EE0FFF1FE40FF51FE05BFC4F22
:1029A000408146FD07C02F5F3F4F2C30310571F746
:1029B0000E94EC06E09175038E2F90E0FC01EE0F73
:1029C000FF1FE80FF91FE05BFC4F8081806480836C
:1029D000B80188E793E00E947006BE0185E793E0A6
:1029E0000E94700680919C0318163CF40E94B0056A
:1029F00060E080919C030E94FE068091A10318165E
:102A00002CF40E94B00580E00E944A0780919D034B
:102A10000E94B00560E080919D030E94FE068091B7
:102A20009E030E94B00561E080919E030E94FE0615
:102A300080919E03082E000C990BFC01EC5CFC4F6E
:102A4000E491F0E0EE0FFF1FE05EFC4F2591349122
:102A50003093AB032093AA03FC01E85BFC4FE491A5
:102A6000E093AE0380919D03082E000C990BFC01AE
:102A7000EC5CFC4FE491F0E0EE0FFF1FE05EFC4FDA
:102A8000259134913093A7032093A603FC01E85BC2
:102A9000FC4FE491E093AF038091A00387FD7CC3DA
:102AA00080919F030E94B00560E080919F030E9487
:102AB000FE068091A0030E94B00561E08091A00312
:102AC0000E94FE068091A003082E000C990BFC01C9
:102AD000EC5CFC4FE491F0E0EE0FFF1FE05EFC4F7A
:102AE000A591B491B093A503A093A403885B9C4FD8
:102AF000FC0184918093AD0320919F03022E000C72
:102B0000330BF901EC5CFC4FE491F0E0EE0FFF1F9A
:102B1000E05EFC4F459154915093A3034093A20370
:102B2000F901E85BFC4FE491E093AC03EC918095F4
:102B30008E238C93E091A203F091A3039081809166
:102B4000AC038095892380838091A00387FF30C0E8
:102B5000CFB7F8948091CC01811124C0EEE3F3E06B
:102B60008491E2E5F3E09491E82FF0E0EE0FFF1F8F
:102B7000E65DFC4FA591B491EC91E92321F461E06D
:102B80008AE00E94FE068AE00E94B0058CB5806152
:102B90008CBD8CB580648CBD8DE00E94B0058BE04F
:102BA0000E94B0058091CC018F5F8093CC01CFBF94
:102BB00080919C031816FCF461E00E94FE0661E01F
:102BC00070E080E090E00E94130960E080919C0337
:102BD0000E94FE066AE070E080E090E00E94130927
:102BE00061E080919C030E94FE0662E370E080E059
:102BF00090E00E9413090E94F30270E060E080E11F
:102C000090E00E94B00270E060E081E190E00E94FC
:102C1000B00270E060E082E190E00E94B00270E0FB
:102C200060E083E190E00E94B00270E060E084E147
:102C300090E00E94B0020E94D20268E270E080E060
:102C400090E00E9413090E94F30268E170E081E1C4
:102C500090E00E94B00261E271E682E190E00E94A1
:102C6000B0026FE670E083E190E00E94B0026FE591
:102C700079E484E190E00E94B00260E078E080E1D5
:102C800090E00E94B0020E94D2026AE070E080E010
:102C900090E00E9413090E94F3026BE370E181E16E
:102CA00090E00E94B0020E94D20262E370E080E0F5
:102CB00090E00E9413090E94F3026CE171E081E050
:102CC00090E00E94B00260E071E082E090E00E943B
:102CD000B00268E370E183E090E00E94B00270E02F
:102CE00060E087E090E00E94B00268E078E088E071
:102CF00090E00E94B00260E071E18BE090E00E9401
:102D0000B00270E060E08CE090E00E94B00261E010
:102D10007DE08FE090E00E94B00260E270E085E12B
:102D200090E00E94B00270E060E080E290E00E94DB
:102D3000B00270E060E081E290E00E94B00270E0DA
:102D400060E080E390E00E94B0026BED70E081E310
:102D500090E00E94B00270E060E082E390E00E94A8
:102D6000B00270E060E083E390E00E94B0026BED9F
:102D700070E084E390E00E94B00270E060E085E3E0
:102D800090E00E94B0026FEA70E086E390E00E945B
:102D9000B00270E060E087E390E00E94B0026BED6B
:102DA00070E088E390E00E94B00270E060E089E3A8
:102DB00090E00E94B00270E060E080E590E00E9448
:102DC000B00268E078E081E590E00E94B0026AE03D
:102DD00078E082E590E00E94B0026AE070E083E56E
:102DE00090E00E94B00268E07AE084E590E00E9402
:102DF000B00268E078E085E590E00E94B00270E003
:102E000060E086E590E00E94B00260E07AE087E54D
:102E100090E00E94B00260E177E088E590E00E94D7
:102E2000B00260E177E089E590E00E94B00262E1E3
:102E300070E087E090E00E94B0020E94D20262E35C
:102E400070E080E090E00E9413090E94F30267E1C5
:102E500070E187E090E00E94B0020E94D20281E01F
:102E60000E944A071092B003C0EBD0E0D0939703C2
:102E7000C09396038CEDE82EF12CF0929903E0922A
:102E8000980310929B0310929A0310E000E02BED40
:102E900030E04FEA50E070E060E090E080E00E94B7
:102EA00077051092B003D0939703C0939603F092E6
:102EB0009903E09298036AE070E080E090E00E945D
:102EC000130981E08093B003F0929703E092960398
:102ED000D0939903C0939803E8E6F0E0F093E503FC
:102EE000E093E403E491E093E603E9E6F0E0849103
:102EF0008093E703EAE6F0E0E491E093E803EBE691
:102F0000F0E0E491E093E903982F969596959695D5
:102F10009093EA031092EB03877019F09F5F9093F0
:102F2000EA030E942B0BC0908203D12CD092DE01C9
:102F3000C092DD01E0908103F12CF092DC01E0927F
:102F4000DB010091800310E01093DA010093D901B6
:102F5000A09083038A2D8150990B5C019093E0012E
:102F60008093DF0160917F0370E07093D6016093DE
:102F7000D50140917E0350E05093D8014093D70192
:102F800020917D0330E03093E2012093E10182E360
:102F90000E944F0EC0E0D0E00E942B0B8091820374
:102FA00090E09093DE018093DD018091810390E0B9
:102FB0009093DC018093DB018091800390E09093FB
:102FC000DA018093D901809183038150990B90930A
:102FD000E0018093DF0180917F0390E09093D60120
:102FE0008093D50180917E0390E09093D8018093E7
:102FF000D70180917D0390E09093E2018093E101FD
:103000008EE00E94F2079093CE018093CD018FE075
:103010000E94F2079093D0018093CF0180E10E943B
:10302000F2079093D2018093D10181E10E94F207CF
:103030009093D4018093D3014091D1015091D2015A
:103040006091CF017091D001E091CD01F091CE015E
:103050009F01261B370B23383105ACF0209100016E
:1030600030910101243B310574F4A0910201B0912B
:103070000301AA35B1050CF09CC0215031093093F1
:103080000101209300016E1B7F0B63387105ACF0CA
:1030900020910001309101011216130674F4609121
:1030A0000201709103016A3571050CF085C02F5F34
:1030B0003F4F30930101209300019A01281B390BE7
:1030C000233831056CF02091020130910301243B3B
:1030D000310534F42F5F3F4F3093030120930201F9
:1030E000841B950B8338910564F0809102019091C7
:1030F0000301181619062CF401979093030180938D
:1031000002018091E1019091E201892BE9F4A09004
:10311000DF01B090E001C090DD01D090DE01E090D1
:10312000DB01F090DC010091D9011091DA014091AE
:10313000D7015091D8016091D5017091D60130E04E
:1031400020E082E30E944F0E0091020110910301E2
:10315000609100017091010188E793E00E94700680
:103160006FE070E080E090E00E941309B80185E70D
:1031700093E00E9470066FE070E080E090E00E94B3
:103180001309209709F408CF0E94B209882309F493
:1031900003CF0E94000000CF1092A5031092A40359
:1031A0001092AD031092A3031092A2031092AC03ED
:1031B000CBCC2F5F3F4F63CF215031097ACFBB2754
:1031C0004A3031F4992322F4BDE2909581959F4FC6
:1031D0000C94EB18BB27FB015527AA27880F991FD2
:1031E000AA1FA41710F0A41B83955051B9F7A05D36
:1031F000AA3308F0A95DA193009779F7B111B193B3
:103200001192CB010C940419DC01FC01672F719120
:103210007723E1F7329704C07C916D9370836291BC
:10322000AE17BF07C8F30895052E97FB1EF4009450
:103230000E942B1957FD07D00E947D1907FC03D06F
:103240004EF40C942B1950954095309521953F4F95
:103250004F4F5F4F089590958095709561957F4F82
:103260008F4F9F4F08950E949F19A59F900DB49F67
:10327000900DA49F800D911D11240895B7FF0C940B
:1032800033190E943319821B930B08952F923F929A
:103290004F925F926F927F928F929F92AF92BF9266
:1032A000CF92DF92EF92FF920F931F93CF93DF9312
:1032B000CDB7DEB7CA1BDB0B0FB6F894DEBF0FBE6F
:1032C000CDBF09942A88398848885F846E847D84BC
:1032D0008C849B84AA84B984C884DF80EE80FD80BE
:1032E0000C811B81AA81B981CE0FD11D0FB6F89434
:1032F000DEBF0FBECDBFED010895A1E21A2EAA1BBD
:10330000BB1BFD010DC0AA1FBB1FEE1FFF1FA21795
:10331000B307E407F50720F0A21BB30BE40BF50B92
:10332000661F771F881F991F1A9469F7609570951B
:10333000809590959B01AC01BD01CF010895A29F9E
:10334000B001B39FC001A39F700D811D1124911D79
:10335000B29F700D811D1124911D0895991B79E074
:1033600004C0991F961708F0961B881F7A95C9F715
:10337000809508950024A7FD00942A173005400584
:10338000500560057005800590050895EE0FFF1F3C
:103390000590F491E02D09940F931F93CF93DF9341
:1033A0008230910510F482E090E0E091F403F09116
:1033B000F50330E020E0B0E0A0E0309799F421156B
:1033C000310509F44AC0281B390B24303105D8F5E2
:1033D0008A819B816115710589F1FB019383828349
:1033E000FE0111C0408151810281138148175907A4
:1033F000E0F04817590799F4109761F012960C9372
:10340000129713961C933296CF01DF91CF911F91A3
:103410000F9108950093F4031093F503F4CF211551
:10342000310551F04217530738F0A901DB019A0129
:10343000BD01DF01F801C1CFEF01F9CF9093F50392
:103440008093F403CDCFFE01E20FF31F819391939C
:103450002250310939832883D7CF2091F20330914C
:10346000F303232B41F4209106013091070130939F
:10347000F3032093F20320910401309105012115FB
:10348000310541F42DB73EB7409108015091090133
:10349000241B350BE091F203F091F303E217F307DD
:1034A000A0F42E1B3F0B2817390778F0AC014E5FB4
:1034B0005F4F2417350748F04E0F5F1F5093F303FB
:1034C0004093F203819391939FCFF0E0E0E09CCF93
:1034D000CF93DF930097E9F0FC01329713821282B9
:1034E000A091F403B091F503ED0130E020E01097D6
:1034F000A1F420813181820F931F2091F20330913A
:10350000F3032817390709F061C0F093F303E09340
:10351000F203DF91CF910895EA01CE17DF07E8F5B6
:103520004A815B819E0141155105B1F7E901FB8399
:10353000EA8349915991C40FD51FEC17FD0761F437
:10354000808191810296840F951FE9019983888378
:10355000828193819B838A83F0E0E0E012968D91D3
:103560009C9113970097B9F52D913C911197CD013E
:103570000296820F931F2091F2033091F3032817D4
:10358000390739F6309751F51092F5031092F4038C
:10359000B093F303A093F203BCCFD383C2834081E3
:1035A0005181840F951FC817D90761F44E5F5F4F93
:1035B00088819981480F591F518340838A819B815B
:1035C000938382832115310509F0B0CFF093F50381
:1035D000E093F4039ECFFD01DC01C0CF1382128281
:1035E000D7CFB0E0A0E0E7EFFAE10C9448198C01E6
:1035F000009751F4CB010E94CC198C01C801CDB7C2
:10360000DEB7E0E10C946419FC01E60FF71F9C01A2
:1036100022503109E217F30708F49DC0D901CD917A
:10362000DC911197C617D70798F0C530D10530F354
:10363000CE0104978617970708F3C61BD70B22976E
:10364000C193D1936D937C93CF010E94681AD6CF1A
:103650005B01AC1ABD0A4C018C0E9D1EA091F403B7
:10366000B091F503512C412CF12CE12C109731F540
:103670008091F2039091F3038815990509F05CC0DD
:103680004616570608F058C0809104019091050134
:10369000009741F48DB79EB7409108015091090100
:1036A000841B950BE817F90708F055C0F093F30356
:1036B000E093F203F90171836083A0CF8D919C9117
:1036C000119712966C90129713967C901397A815E9
:1036D000B90559F56C0142E0C40ED11CCA14DB04D3
:1036E00020F1AC014A195B09DA011296159780F0B6
:1036F0006282738251834083D9016D937C93E1147C
:10370000F10471F0D7011396FC93EE93129776CFE4
:1037100022968C0F9D1FF90191838083F301EFCFD7
:10372000F093F503E093F40369CF4816590608F4C3
:103730002C017D01D3019ACFCB010E94CC197C01D1
:10374000009749F0AE01B8010E94AE1BC8010E946B
:10375000681A870153CF10E000E050CFFB01DC0175
:1037600002C001900D9241505040D8F70895FB01DE
:10377000DC0101900D920020E1F70895F894FFCF4D
:103780005A005A000000F603800053756E64617998
:103790000000000000004D6F6E64617900000000C1
:1037A000000054756573646179000000000057657E
:1037B000646E6573646179000000546875727364A7
:1037C00061790000000046726964617900000000C0
:1037D0000000536174757264617900000000030099
:1037E00002000700060001000000050004000600BA
:1037F00007000400050002000300000001000500AE
:1038000004000100000007000600030002000000A1
:1038100000003C060F067209F8050806D901F905F3
:1038200000000000E80945097509350AA609840960
:1038300098092C2000250054696D6500426174745C
:0C3840006572792070657263656E74001B
:00000001FF
